:020000040000FA
:08000000803102288731FD2F39
:100E9C0068302100990098012200960108008030EA
:100EAC002C0099007F309800C0309700CF3025007F
:100EBC009E05080020009E019D019F01FF309B00B4
:100ECC009A019010E0309C00080087318E27873102
:100EDC0087314E27873187315527873187316027F6
:100EEC00873108007108F3007008F200F336F20C39
:100EFC00F336F20C72082C00980070080339F200DB
:100F0C000530F235FF3E031D872F72359700080020
:100F1C0022008C018D018E01373021008C00F030C5
:100F2C008D00FE308E00CF3023008E00F0308D000F
:100F3C0017308C0024008D018C018E012100951737
:100F4C0025008C018D018E01373026008C00F0308D
:100F5C008D00FF308E003F3027008C00F0308D006C
:100F6C00FF308E000E303D00A000080087316B274B
:100F7C008731F501F6017608F1007508F00087312C
:100F8C00782787312730F400F530890BCB2FF40B01
:100F9C00CB2F00000130F5070030F63D0330760210
:100FAC00E73003197502031CDC2FDD2FC12FE7304E
:100FBC00F5000330F6007608F1007508F000873173
:100FCC00782787312730F400F530890BEB2FF40BA1
:100FDC00EB2F00000130F5020030F63B750876046B
:100FEC00031DF92FFA2FE12FBF2F8031022820008B
:040FFC008731BC2F4E
:020000040001F9
:06000E00DC3FFF3E9F3FB6
:00000001FF
