:020000040000FA
:0400000080312428FF
:1000060008007E1480310B1D09280A2822280310B7
:1000160022000D1E031403181128142822000D16A1
:10002600162822000D1220001608E1001708E2002B
:10003600E301E4017D309500960197010B117E10D6
:1000460009008031262861308400003085000B309D
:100056008F31F3278031A03084000030850048308E
:100066008F31F32780317E10200080313A28873186
:10007600B527803121001908873968389900FC3086
:100086009905980123008C018D018E0124302100F1
:100096008C008D018E0120008C018D018E018B1745
:1000A6000B118B168731DA2780318231EC228031B1
:1000B600013084311B2480310C3084311B24803183
:1000C60082302000DD00DD30890B6728DD0B6728D4
:1000D60000323F302000DF000030E00020006008E2
:1000E600F1005F08F00087319F278031CE30200075
:1000F600CD008730CE00D43087314C278031FC309C
:100106002000CD008730CE00C03087314C278031AB
:10011600F301F30AD430F4000030F50001308631E3
:1001260055268031F301F30AC030F4000030F500A3
:10013600023086315526803182302000DD00DD30E8
:10014600890BA328DD0BA32800320A302000E90022
:100156000030EA00CE302000CD008730CE00D4300B
:1001660087314C278031F301F30AD430F400003094
:10017600F500013086315526803182302000DD00C1
:10018600DD30890BC428DD0BC4280032FF30200087
:10019600E907FF30EA3D6A08803ADD0080305D02FB
:1001A600031DD728013069020318DA28DB28AD2899
:1001B600F301F30AC230F4008730F50002308631CD
:1001C6005526803104302000DE000C30DD0033304F
:1001D600890BEB28DD0BEB28DE0BEB2800320F300A
:1001E60084311B24803106302000DE001330DD0010
:1001F600AD30890BFC28DD0BFC28DE0BFC28003219
:100206000E3084311B24803106302000DE0013308E
:10021600DD00AD30890B0D29DD0B0D29DE0B0D2917
:1002260000320C3084311B24803106302000DE0081
:100236001330DD00AD30890B1E29DD0B1E29DE0BC8
:100246001E290032013084311B2480310630200003
:10025600DE001330DD00AD30890B2F29DD0B2F2991
:10026600DE0B2F2900320430F3000630F40088300C
:10027600F50001308631982680310430F3000030D5
:10028600F4009030F50002308631982680317128CE
:10029600803124282000AF00AB1B5229542901309D
:1002A60055290030B600360803195A295B296029FA
:1002B600AA09AB09AA0A0319AB0AE81B6329642930
:1002C6006829FD30AC002C08EB05E81F6B296C296A
:1002D60071290130B0000030B10075296808B100FD
:1002E6006708B0006608B3006508B200360803194F
:1002F6007D297E299229FF30B207FF30B33D3608AB
:10030600031D862987298C292B30AD000030AE00CD
:1003160090292D30AD000030AE002D08B6001F30FC
:10032600B4000030B5002100BF01D029FF30200005
:10033600B407FF30B53D3408A03E860087010A3079
:10034600F0000030F1002B08F3002A08F200853196
:100356006D2581317108F8007008F700873185270F
:1003660081317708303E8100FF302000B007FF3032
:10037600B13DFF30B207FF30B33D0A30F000003028
:10038600F1002B08F3002A08F20085310E25813191
:1003960071082000AB007008AA0020003508803ADA
:1003A600AC0080302C02031DDA2901303402031C14
:1003B600DD29DE29052A20002A082B04031DE4294D
:1003C600E52999293108803AAC0080302C02031DBA
:1003D600EE29013030020318F129F229992920006B
:1003E6003308803AAC0080302C02031DFC29013012
:1003F6003202031CFF29002A052A2000EB18042AD2
:10040600052A99292000360803190A2A0B2A152AD3
:10041600FF30B407FF30B53D3408A03E86008701A3
:10042600360881003408A03EFB003308FD00320880
:10043600FC002F0886311026813108002000C300F9
:10044600370886008701403FB900413FBA003908A6
:1004560084003A0885001200253A031D332A342AFF
:10046600D32A3708860087010130810741310318F6
:10047600810AE501E6010310003003180130EB00A4
:10048600FF30E700FF30E800C101C201712AEB141A
:100496003708860087010130810741310318810A38
:1004A600712A0130C1000030C200712A3708860067
:1004B6008701403FB900413FBA00390884003A0835
:1004C60085000008BB00BC013C08003A03196C2AF1
:1004D600542A3B08303A03194A2A542A410842044E
:1004E6000319762A772A592A3808F60037088431FC
:1004F600AE24823177082000E6007608E500E61F84
:10050600852A862A8C2A6B14E509E609E50A031969
:10051600E60A370886008701403FC400413FC50010
:1005260044088400450885001200643A03199C2A91
:100536009D2AA72A44088400450885001200693AC6
:10054600031DA62AA72AC92A38088600870101089A
:100556008400850102308107003FBD00013FBE00D7
:100566004408013EB9000030453DBA003708860010
:1005760087013908C03F3A08C13F3E08AB003D0835
:10058600AA00430881314D218231EB2A2000370829
:10059600860087010130810741310318810AEB2A61
:1005A600370886008701403FB900413FBA00390845
:1005B60084003A0885000008BB00BC013B08F00037
:1005C6003C08F1004308F2008531C0258231C92A72
:1005D600080021000E108E100E118E110E128E12B2
:1005E60020000E108E100E118E110E128E12083073
:1005F600F3002330890BFD2AF30BFD2A0000083097
:10060600F3002330890B052BF30B052B0000083074
:10061600F3002330890B0D2BF30B0D2B0000083054
:10062600F3002330890B152BF30B152B0000083034
:10063600F3002330890B1D2BF30B1D2B0000083014
:10064600F3002330890B252BF30B252B0000F40137
:10065600F40A20000E108E100E158E150E128E1234
:100666000E108E100E158E150E168E1200320032DA
:10067600000020000E108E100E158E150E128E1212
:100686000830F3002330890B462BF30B462B000072
:100696000130F3007308F40704307402031C542B72
:1006A600552B2C2B20000E108E100E158E110E12AF
:1006B6008E120E108E100E158E110E168E12003220
:1006C6000032000020000E108E100E158E110E1234
:1006D6008E120830F3002330890B6F2BF30B6F2B30
:1006E6000000283084311B248231103084311B24D1
:1006F6008231013084311B2482310F3084311B2436
:1007060082310800F20020000E128E167208F000E8
:100716000730F036890B8C2B01307005F1000E087E
:100726007106FE3971068E007208F0000630F0364A
:10073600890B9A2B70080139F100F10D0E0871062C
:10074600FD3971068E007208F0000530F036890B0F
:10075600A92B70080139F100F10DF10D0E08710693
:10076600FB3971068E007208F0000430F036890BF2
:10077600B92B70080139F100F10DF10DF10D0E08DC
:100786007106F73971068E000330890BC82B0000FD
:1007960020000E1600320032000020000E127208F1
:1007A600F0000330F036890BD52B01307005F100CF
:1007B6000E087106FE3971068E007208F0000230CE
:1007C600F036890BE32B70080139F100F10D0E08A4
:1007D6007106FD3971068E0072360139F000F00D92
:1007E600F00D0E087006FB3970068E00720801398E
:1007F600F000F00DF00DF00D0E087006F7397006DA
:100806008E000330890B052C000020000E160032E6
:100816000032000020000E120032003200000830C4
:10082600F0002330890B152CF00B152C0000080066
:10083600F20020000E128E127208F0000730F03619
:10084600890B222C01307005F1000E087106FE3965
:1008560071068E007208F0000630F036890B302CD7
:1008660070080139F100F10D0E087106FD397106A7
:100876008E007208F0000530F036890B3F2C7008A8
:100886000139F100F10DF10D0E087106FB39710603
:100896008E007208F0000430F036890B4F2C700879
:1008A6000139F100F10DF10DF10D0E087106F73960
:1008B60071068E000330890B5E2C000020000E1698
:1008C60000320032000020000E127208F0000330E1
:1008D600F036890B6B2C01307005F1000E0871069D
:1008E600FE3971068E007208F0000230F036890B70
:1008F600792C70080139F100F10D0E087106FD39E9
:1009060071068E0072360139F000F00DF00D0E08FA
:100916007006FB3970068E0072080139F000F00D82
:10092600F00DF00D0E087006F73970068E000330D4
:10093600890B9B2C000020000E16003200320000AE
:1009460020000E120830F0002330890BA82CF00B83
:10095600A82C000008002000A300A101A201230882
:1009660086008701403FF800413FF900780884007F
:100976007908850012002A3A031DC22CC32CF52CD7
:100986002308860087010130810741310318810A57
:1009960076088600870101088400850102308107F8
:1009A600003FA100013FA200092D2008F800F9012F
:1009B6002208F1002108F0000A30F2000030F300AE
:1009C60087312D278431780870072000A100790827
:1009D600713DA2002308860087010130810741315D
:1009E6000318810A230886008701403FF800413F2B
:1009F600F90078088400790885000008D03EA00038
:100A06000A302002031C082D092DD82C2208F700D5
:100A16002108F6000800F601F11F122D132D1A2DDC
:100A2600F009F109F00A0319F10AF601F60AF31FB3
:100A36001D2D1E2D272DF209F309F20A0319F30ABB
:100A46000130F4007408F606F701F8017008710425
:100A560003192E2D2F2D5E2DF501F50A3B2D0130A4
:100A6600F035F10D890B332D0130F4007408F507CC
:100A7600F11F3E2D3F2D322D0130F735F80D890B34
:100A8600402D71087302031D4A2D70087202031C63
:100A96004D2D4E2D532D7008F2027108F33B77143D
:100AA6000130F136F00C890B542D0130F502031D8F
:100AB6005D2D5E2D3F2D76080319622D632D682D61
:100AC600F709F809F70A0319F80A7808F100770810
:100AD600F0000800F601F31F712D722D792DF20931
:100AE600F309F20A0319F30AF601F60AF11F7C2D3F
:100AF6007D2D822DF009F109F00A0319F10A70081B
:100B060071040319872D882DB12DF501F50A942D51
:100B16000130F035F10D890B8C2D0130F40074088D
:100B2600F507F11F972D982D8B2D71087302031D64
:100B36009E2D70087202031CA12DA22DA62D7008F1
:100B4600F2027108F33B0130F136F00C890BA72D48
:100B56000130F502031DB02DB12D982D760803192D
:100B6600B52DB62DBB2DF209F309F20A0319F30AC6
:100B76007308F1007208F000080072080319C42D0A
:100B8600C52DCA2D7208031DC92DCA2DCF2D70087B
:100B96008031032085310F2E7208093E86008701B9
:100BA600160001040319D82DD92DF72D7208093E18
:100BB60086008701403FF300413FF4007208023E81
:100BC60086008701403FF500413FF6007608803AEF
:100BD600F7007408803A7702031DF32D7308750237
:100BE6000318F62DF72D0F2E72088600870172085E
:100BF600023E8400850100080107F30073088600A1
:100C06008701700881007208023E86008701013064
:100C1600810741310318810A08002000A9006B1CD6
:100C2600152E162E1C2E2908F8007B088731092759
:100C36008631FD1B1F2E202E262E7D082000A800A3
:100C46007C08A700292E2000A701A801A501A6015E
:100C56003B2E2030F0000030F10020002908F20081
:100C66008531C025863101302000A5070030A63D1C
:100C76002608803AA4002808803A2402031D452E3F
:100C860027082502031C482E492E2C2E20006B18FF
:100C96004D2E4E2E542E2908F8007B088731092741
:100CA60086310800F800672E7308803EF9007D2E15
:100CB6007308C03EF9007D2E7308943EF9007D2E20
:100CC6007308D43EF9007D2E7808F600F701770800
:100CD600003A03196F2E7D2E7608013A0319572E16
:100CE600033A03195B2E013A03195F2E073A0319DB
:100CF600632E7D2E790884311B2486318E2E74084E
:100D0600840075088500000883318523863101300B
:100D1600F4070030F53D740884007508850012005C
:100D2600031D962E972E822E0800F800AA2E730811
:100D3600803EF900C02E7308C03EF900C02E73082D
:100D4600943EF900C02E7308D43EF900C02E7808F0
:100D5600F600F7017708003A0319B22EC02E76087E
:100D6600013A03199A2E033A03199E2E013A0319E2
:100D7600A22E073A0319A62EC02E790884311B2409
:100D86008631D12E740884007508850000088331E9
:100D9600852386310130F4070030F53D7408840060
:100DA600750885001200031DD92EDA2EC52E0800FF
:100DB60022008C018D018E01373021008C00F0302D
:100DC6008D00BF308E00CF3023008E00F0308D00B6
:100DD60017308C0024008D018C018E01210095179F
:100DE60025008C018D018E01373026008C00F030F5
:100DF6008D00FF308E003F3027008C00F0308D00D4
:100E0600FF308E000E303D00A60008002000A30033
:100E1600A101A2011F2F2008F900FA017908F000AC
:100E26007A08F1007808F2008531C0258731013053
:100E36002000A1070030A23D21082307F900790808
:100E4600860087010108A0002008031D2B2F2C2FE8
:100E56000E2F0800F401F501701C322F332F372FA7
:100E66007208F4077308F53D0130F235F30D890B6E
:100E7600382F0130F136F00C890B3D2F70087104C4
:100E8600031D462F472F2F2F7508F1007408F00019
:100E960008002000D1004F30D0005108D200D40104
:100EA600D501DB01DC014E08C7004D08C6005030F5
:100EB600C80052308731692787312000540851070E
:100EC600CF004F0886008701810108002000CA0074
:100ED6004708CC004608CB00782F4B30B7004808AF
:100EE600B8004A0882312122873120004B0884004D
:100EF6004C0885001200031D812F822F702FC6011A
:100F0600C70108007808803AF90080307902031D8D
:100F16008E2F013077020318912F922F9E2F77097B
:100F2600F9007809FA00F90A0319FA0A7908F700AC
:100F36007A08F8009E2F08007108F3007008F20086
:100F4600F336F20CF336F20C72082C009800700897
:100F56000339F2000530F235FF3E031DAE2F723520
:100F6600970008008631DB2687318F31F9278731D4
:100F76008731F12787318731E627873108005434D6
:100F860065347334743469346E34673420344C34C5
:100F96004334443400344334753465346E34743425
:100FA6006134203425343034333464340034023030
:100FB6003C009100273021009500E130200095008B
:100FC6000B118B16080020009E019D019F011F300A
:100FD6009B009A01901080309C00080080302C0005
:100FE60099000F309800C0309700CF3025009E053D
:100FF60008004434453443343A34203425343034FC
:101006003334643400345434683461346E346B34AD
:0410160073340034FB
:101FE600640080010131890BF42F00346830210030
:101FF600990098012200960108005434683461342F
:062006006E346B3400345F
:020000040001F9
:06000E009C3FFF3E9F3FF6
:00000001FF
