:020000040000FA
:0400000080312828FB
:100008007E1480310B1D09280A2826280310220097
:100018000D1E031403181128142822000D16162883
:1000280022000D12200016082100A0002000170849
:100038002100A100A201A3017D30200095009601B6
:1000480097010B117E10090080312A286530840041
:10005800003085000B30873123278031A0308400A1
:10006800003085004C308731232780317E102000F6
:1000780080313E288631D5268031210019088739FC
:1000880068389900FC309905980123008C018D018E
:100098008E01243021008C008D018E0120008C01FE
:1000A8008D018E018B170B118B168631FA26803144
:1000B80087312927803182315122803101308331C3
:1000C800802380310C3083318023803182302000BE
:1000D800DF00DD30890B6E28DF0B6E2800323F30E1
:1000E8002000E3000030E40020006408F100630809
:1000F800F0008631BF2680312000E901EA01EB01DA
:10010800EC0196019701960197011814063020001A
:10011800E0001330DF00AD30890B9028DF0B90280A
:10012800E00B9028003220001708DF00E0015F088C
:10013800EB006008EC006B08E000DF015F08EB00F3
:100148006008EC0016086B07DF006C0803186C0ADF
:10015800E0005F08EB006008EC00181096019701BA
:10016800960197016C08EA006B08E900EE30CB00B5
:100178008630CC006A08CE006908CD00D8308631B8
:100188006C268031E2302000CB008630CC00170886
:10019800DF00E0015F08CD006008CE001608E1002E
:1001A800E2016108CF006208D000C43086316C26B5
:1001B8008031F301F30AD830F40001308531BA25D3
:1001C8008031F301F30AC430F40002308531BA25D6
:1001D800803106302000E0001330DF00AD30890B9D
:1001E800F328DF0BF328E00BF3280032782880315E
:1001F80028282000AF00AB1B02290429013005295B
:100208000030B600360803190A290B291029AA0953
:10021800AB09AA0A0319AB0AE81F132914291929DB
:100228000130B0000030B1001D296808B10067082E
:10023800B0006608B3006508B2003608031925291E
:1002480026293A29FF30B207FF30B33D3608031D8F
:100258002E292F2934292B30AD000030AE00382943
:100268002D30AD000030AE002D08B6001F30B400B0
:100278000030B5002100C3017829FF302000B40701
:10028800FF30B53D3408A43E860087010A30F000EF
:100298000030F1002B08F3002A08F2008431D22440
:1002A80080317108F8007008F7008631A526803182
:1002B8007708303E8100FF302000B007FF30B13DA5
:1002C800FF30B207FF30B33D0A30F0000030F100D4
:1002D8002B08F3002A08F200843173248031710856
:1002E8002000AB007008AA0020003508803AAC0056
:1002F80080302C02031D822901303402031C852919
:1003080086299A2920002A082B04031D8C298D2967
:1003180041293108803AAC0080302C02031D96290F
:1003280001303002031899299A29412920003608FA
:1003380003199F29A029AA29FF30B407FF30B53D2A
:100348003408A43E86008701360881003408A43E9C
:10035800FB003308FD003208FC002F0885317525A5
:10036800803108002000C100370886008701403F1F
:10037800B900413FBA00390884003A0885001200E4
:10038800253A031DC829C929382A37088600870154
:100398000130810741310318810AE501E6010310A4
:1003A800003003180130EF00FF30E700FF30E800AD
:1003B8003808F60037088431132481317708200083
:1003C800E6007608E500E61FEA29EB29F1296F1413
:1003D800E509E609E50A0319E60A370886008701F0
:1003E800403FC200413FC3004208840043088500E3
:1003F8001200643A0319012A022A0C2A42088400CE
:10040800430885001200693A031D0B2A0C2A2E2A7C
:1004180038088600870101088400850102308107B9
:10042800003FBD00013FBE004208013EB900003058
:10043800433DBA003708860087013908C03F3A08AB
:10044800C13F3E08AB003D08AA0041088031FD20AD
:100458008131502A20003708860087010130810742
:1004680041310318810A502A370886008701403F26
:10047800B900413FBA00390884003A0885000008ED
:10048800BB00BC013B08F0003C08F1004108F20049
:100498008531252581312E2A080021000E108E1065
:1004A8000E118E110E128E1220000E108E100E11CB
:1004B8008E110E128E120830F3002330890B622A37
:1004C800F30B622A00000830F3002330890B6A2AF4
:1004D800F30B6A2A00000830F3002330890B722AD4
:1004E800F30B722A00000830F3002330890B7A2AB4
:1004F800F30B7A2A00000830F3002330890B822A94
:10050800F30B822A00000830F3002330890B8A2A73
:10051800F30B8A2A0000F401F40A20000E108E1052
:100528000E158E150E128E120E108E100E158E15BB
:100538000E168E1200320032000020000E108E10AF
:100548000E158E150E128E120830F3002330890B0B
:10055800AB2AF30BAB2A00000130F3007308F40751
:1005680004307402031CB92ABA2A912A20000E10FA
:100578008E100E158E110E128E120E108E100E1574
:100588008E110E168E1200320032000020000E105E
:100598008E100E158E110E128E120830F3002330B5
:1005A800890BD42AF30BD42A000028308331802306
:1005B80082311030833180238231013083318023AE
:1005C80082310F308331802382310800F20020000D
:1005D8000E128E167208F0000730F036890BF12AD9
:1005E80001307005F1000E087106FE3971068E00A3
:1005F8007208F0000630F036890BFF2A70080139BE
:10060800F100F10D0E087106FD3971068E007208B1
:10061800F0000530F036890B0E2B70080139F10017
:10062800F10DF10D0E087106FB3971068E00720886
:10063800F0000430F036890B1E2B70080139F100E8
:10064800F10DF10DF10D0E087106F73971068E00E6
:100658000330890B2D2B000020000E1600320032CB
:10066800000020000E127208F0000330F036890BEB
:100678003A2B01307005F1000E087106FE3971063B
:100688008E007208F0000230F036890B482B700893
:100698000139F100F10D0E087106FD3971068E0061
:1006A80072360139F000F00DF00D0E087006FB39B6
:1006B80070068E0072080139F000F00DF00DF00D93
:1006C8000E087006F73970068E000330890B6A2B06
:1006D800000020000E1600320032000020000E122A
:1006E8000032003200000830F0002330890B7A2BEA
:1006F800F00B7A2B00000800F20020000E128E1278
:100708007208F0000730F036890B872B013070052E
:10071800F1000E087106FE3971068E007208F000AD
:100728000630F036890B952B70080139F100F10D70
:100738000E087106FD3971068E007208F00005304A
:10074800F036890BA42B70080139F100F10DF10D79
:100758000E087106FB3971068E007208F00004302D
:10076800F036890BB42B70080139F100F10DF10D49
:10077800F10D0E087106F73971068E000330890BEA
:10078800C32B000020000E160032003200002000AB
:100798000E127208F0000330F036890BD02B0130AE
:1007A8007005F1000E087106FE3971068E00720898
:1007B800F0000230F036890BDE2B70080139F100A9
:1007C800F10D0E087106FD3971068E007236013979
:1007D800F000F00DF00D0E087006FB3970068E0063
:1007E80072080139F000F00DF00DF00D0E087006DA
:1007F800F73970068E000330890B002C00002000AA
:100808000E1600320032000020000E120830F000F0
:100818002330890B0D2CF00B0D2C00000800200054
:10082800A300A101A201230886008701403FF80028
:10083800413FF900780884007908850012002A3AB7
:10084800031D272C282C5A2C2308860087010130E9
:10085800810741310318810A76088600870101085B
:100868008400850102308107003FA100013FA200FA
:100878006E2C2008F800F9012208F1002108F00088
:100888000A30F2000030F30086314D2684317808B2
:1008980070072000A1007908713DA2002308860096
:1008A80087010130810741310318810A2308860036
:1008B8008701403FF800413FF90078088400790833
:1008C80085000008D03EA0000A302002031C6D2CD1
:1008D8006E2C3D2C2208F7002108F6000800F601CE
:1008E800F11F772C782C7F2CF009F109F00A0319F5
:1008F800F10AF601F60AF31F822C832C8C2CF209DC
:10090800F309F20A0319F30A0130F4007408F60631
:10091800F701F801700871040319932C942CC32C67
:10092800F501F50AA02C0130F035F10D890B982C52
:100938000130F4007408F507F11FA32CA42C972CA0
:100948000130F735F80D890BA52C71087302031DCA
:10095800AF2C70087202031CB22CB32CB82C700890
:10096800F2027108F33B77140130F136F00C890B71
:10097800B92C0130F502031DC22CC32CA42C760817
:100988000319C72CC82CCD2CF709F809F70A031945
:10099800F80A7808F1007708F0000800F601F31F5C
:1009A800D62CD72CDE2CF209F309F20A0319F30A24
:1009B800F601F60AF11FE12CE22CE72CF009F10907
:1009C800F00A0319F10A700871040319EC2CED2CD4
:1009D800162DF501F50AF92C0130F035F10D890BCA
:1009E800F12C0130F4007408F507F11FFC2CFD2CE4
:1009F800F02C71087302031D032D70087202031C8A
:100A0800062D072D0B2D7008F2027108F33B0130FB
:100A1800F136F00C890B0C2D0130F502031D152D54
:100A2800162DFD2C760803191A2D1B2D202DF209E1
:100A3800F309F20A0319F30A7308F1007208F000C7
:100A4800080072080319292D2A2D2F2D7208031D5D
:100A58002E2D2F2D342D700887312D278531742D9B
:100A68007208093E860087011600010403193D2D0E
:100A78003E2D5C2D7208093E86008701403FF30039
:100A8800413FF4007208023E86008701403FF500AE
:100A9800413FF6007608803AF7007408803A7702FA
:100AA800031D582D7308750203185B2D5C2D742DDA
:100AB8007208860087017208023E840085010008DA
:100AC8000107F30073088600870170088100720827
:100AD800023E860087010130810741310318810AEF
:100AE80008002000A9006F1C7A2D7B2D812D290874
:100AF800F8007B08863129268531FD1B842D852D3C
:100B08008B2D7D082000A8007C08A7008E2D2000D2
:100B1800A701A801A501A601A02D2030F0000030F2
:100B2800F10020002908F2008531252585310130A2
:100B38002000A5070030A63D2608803AA400280812
:100B4800803A2402031DAA2D27082502031CAD2D77
:100B5800AE2D912D20006F18B22DB32DB92D290877
:100B6800F8007B088631292685310800F700CC2D4E
:100B78007308803EF800E22D7308C03EF800E22DAD
:100B88007308943EF800E22D7308D43EF800E22D75
:100B98007708F500F6017608003A0319D42DE22DFE
:100BA8007508013A0319BC2D033A0319C02D013AFF
:100BB8000319C42D073A0319C82DE22D780883318B
:100BC80080238531F22D740886008701010882315F
:100BD800EA2285310130F5007508F40774088600AB
:100BE80087010108031DF92DFA2DE72D08002200C1
:100BF8008C018D018E01373021008C00F0308D0082
:100C0800BF308E00CF3023008E00F0308D001730BB
:100C18008C0024008D018C018E0121009517250080
:100C28008C018D018E01373026008C00F0308D004C
:100C3800FF308E003F3027008C00F0308D00FF30F1
:100C48008E000E303D00A60008002000A300A10180
:100C5800A2013F2E2008F900FA017908F0007A086D
:100C6800F1007808F2008531252586310130200011
:100C7800A1070030A23D21082307F9007908860062
:100C880087010108A0002008031D4B2E4C2E2E2E94
:100C98000800F401F501701C522E532E572E7208CD
:100CA800F4077308F53D0130F235F30D890B582E22
:100CB8000130F136F00C890B5D2E70087104031DAC
:100CC800662E672E4F2E7508F1007408F000080094
:100CD8002000D3004D30D2005308D400D601D701EC
:100CE800DD01DE014C08C5004B08C4005230C600C7
:100CF8005430863189268631200056085307D100A2
:100D0800510886008701810108002000C8004508B5
:100D1800CA004408C900982E4930B7004608B800F0
:100D280048088131B62186312000490884004A08E4
:100D380085001200031DA12EA22E902EC401C5010C
:100D480008007808803AF90080307902031DAE2E39
:100D5800013077020318B12EB22EBE2E7709F900A2
:100D68007809FA00F90A0319FA0A7908F7007A08E3
:100D7800F800BE2E08007108F3007008F200F33680
:100D8800F20CF336F20C72082C0098007008033944
:100D9800F2000530F235FF3E031DCE2E7235970066
:100DA80008008531FB25863187311C27863187313C
:100DB80011278631873106278631080048343A34AE
:100DC80025343234643420344C343A3425343234C3
:100DD800643400344334753465346E3474346134A7
:100DE8003A342034253435346434003402303C003D
:100DF8009100273021009500E130200095000B116B
:100E08008B16080020009E019D019F011F309B004A
:100E18009A01901080309C00080080302C009900C6
:100E28000F309800C0309700CF3025009E0508008D
:100E3800683021009900980122009601080064009A
:100E480080010131890B242F003484302000980060
:040E58000800080086
:020000040001F9
:06000E009C3FFF3E9F3FF6
:00000001FF
