:020000040000FA
:0400000080312828FB
:100008007E1480310B1D09280A2826280310220097
:100018000D1E031403181128142822000D16162883
:1000280022000D12200016082100A0002000170849
:100038002100A100A201A3017D30200095009601B6
:1000480097010B117E10090080312A286530840041
:10005800003085000B3087311F278031A0308400A5
:10006800003085004C3087311F2780317E102000FA
:1000780080313E288631D126803121001908873900
:1000880068389900FC309905980123008C018D018E
:100098008E01243021008C008D018E0120008C01FE
:1000A8008D018E018B170B118B168631F626803148
:1000B80087312527803182314D22803101308331CB
:1000C8007C2380310C3083317C23803182302000C6
:1000D800DF00DD30890B6E28DF0B6E2800323F30E1
:1000E8002000E3000030E40020006408F100630809
:1000F800F0008631BB2680312000E901EA01EB01DE
:10010800EC01181406302000E0001330DF00AD3099
:10011800890B8C28DF0B8C28E00B8C280032200000
:100128001708DF00E0015F08EB006008EC006B08CF
:10013800E000DF015F08EB006008EC0016086B07C1
:10014800DF006C0803186C0AE0005F08EB00600829
:10015800EC00181096019701960197016C08EA00C7
:100168006B08E900EA30CB008630CC006A08CE0084
:100178006908CD00D830863168268031DE3020000D
:10018800CB008630CC001708DF00E0015F08CD0007
:100198006008CE001608E100E2016108CF0062089D
:1001A800D000C430863168268031F301F30AD83094
:1001B800F40001308531B6258031F301F30AC430EB
:1001C800F40002308531B625803106302000E00089
:1001D8001330DF00AD30890BEF28DF0BEF28E00B81
:1001E800EF2800327828803128282000AF00AB1B88
:1001F800FE280029013001290030B600360803190D
:10020800062907290C29AA09AB09AA0A0319AB0A66
:10021800E81F0F29102915290130B0000030B1005E
:1002280019296808B1006708B0006608B3006508B6
:10023800B20036080319212922293629FF30B207CE
:10024800FF30B33D3608031D2A292B2930292B30CE
:10025800AD000030AE0034292D30AD000030AE00C6
:100268002D08B6001F30B4000030B5002100C301CE
:100278007429FF302000B407FF30B53D3408A43E90
:10028800860087010A30F0000030F1002B08F300E7
:100298002A08F2008431CE2480317108F8007008F1
:1002A800F7008631A12680317708303E8100FF3083
:1002B8002000B007FF30B13DFF30B207FF30B33D3B
:1002C8000A30F0000030F1002B08F3002A08F20091
:1002D80084316F24803171082000AB007008AA00B7
:1002E80020003508803AAC0080302C02031D7E299E
:1002F80001303402031C81298229962920002A080A
:100308002B04031D882989293D293108803AAC002E
:1003180080302C02031D92290130300203189529E0
:1003280096293D292000360803199B299C29A629CE
:10033800FF30B407FF30B53D3408A43E860087017E
:10034800360881003408A43EFB003308FD0032085B
:10035800FC002F0885317125803108002000C1007C
:10036800370886008701403FB900413FBA00390885
:1003780084003A0885001200253A031DC429C529BE
:10038800342A370886008701013081074131031874
:10039800810AE501E6010310003003180130EF007F
:1003A800FF30E700FF30E8003808F60037088431EE
:1003B8000F24813177082000E6007608E500E61F63
:1003C800E629E729ED296F14E509E609E50A031985
:1003D800E60A370886008701403FC200413FC30054
:1003E80042088400430885001200643A0319FD2975
:1003F800FE29082A42088400430885001200693A49
:10040800031D072A082A2A2A3808860087010108B6
:100418008400850102308107003FBD00013FBE0016
:100428004208013EB9000030433DBA003708860053
:1004380087013908C03F3A08C13F3E08AB003D0874
:10044800AA0041088031F92081314C2A2000370860
:10045800860087010130810741310318810A4C2A3F
:10046800370886008701403FB900413FBA00390884
:1004780084003A0885000008BB00BC013B08F00076
:100488003C08F1004108F2008531212581312A2AF2
:10049800080021000E108E100E118E110E128E12F1
:1004A80020000E108E100E118E110E128E120830B2
:1004B800F3002330890B5E2AF30B5E2A0000083014
:1004C800F3002330890B662AF30B662A00000830F4
:1004D800F3002330890B6E2AF30B6E2A00000830D4
:1004E800F3002330890B762AF30B762A00000830B4
:1004F800F3002330890B7E2AF30B7E2A0000083094
:10050800F3002330890B862AF30B862A0000F401B6
:10051800F40A20000E108E100E158E150E128E1273
:100528000E108E100E158E150E168E120032003219
:10053800000020000E108E100E158E150E128E1251
:100548000830F3002330890BA72AF30BA72A0000F1
:100558000130F3007308F40704307402031CB52A51
:10056800B62A8D2A20000E108E100E158E110E122E
:100578008E120E108E100E158E110E168E1200325F
:100588000032000020000E108E100E158E110E1273
:100598008E120830F3002330890BD02AF30BD02AAF
:1005A8000000283083317C238231103083317C2352
:1005B8008231013083317C2382310F3083317C23B7
:1005C80082310800F20020000E128E167208F00028
:1005D8000730F036890BED2A01307005F1000E085E
:1005E8007106FE3971068E007208F0000630F0368A
:1005F800890BFB2A70080139F100F10D0E0871060C
:10060800FD3971068E007208F0000530F036890B4E
:100618000A2B70080139F100F10DF10D0E08710671
:10062800FB3971068E007208F0000430F036890B31
:100638001A2B70080139F100F10DF10DF10D0E08BA
:100648007106F73971068E000330890B292B0000DB
:1006580020000E1600320032000020000E12720830
:10066800F0000330F036890B362B01307005F100AD
:100678000E087106FE3971068E007208F00002300D
:10068800F036890B442B70080139F100F10D0E0882
:100698007106FD3971068E0072360139F000F00DD1
:1006A800F00D0E087006FB3970068E0072080139CD
:1006B800F000F00DF00DF00D0E087006F739700619
:1006C8008E000330890B662B000020000E160032C6
:1006D8000032000020000E12003200320000083004
:1006E800F0002330890B762BF00B762B00000800E6
:1006F800F20020000E128E127208F0000730F03659
:10070800890B832B01307005F1000E087106FE3944
:1007180071068E007208F0000630F036890B912BB6
:1007280070080139F100F10D0E087106FD397106E6
:100738008E007208F0000530F036890BA02B700887
:100748000139F100F10DF10D0E087106FB39710642
:100758008E007208F0000430F036890BB02B700858
:100768000139F100F10DF10DF10D0E087106F7399F
:1007780071068E000330890BBF2B000020000E1677
:1007880000320032000020000E127208F000033020
:10079800F036890BCC2B01307005F1000E0871067C
:1007A800FE3971068E007208F0000230F036890BAF
:1007B800DA2B70080139F100F10D0E087106FD39C8
:1007C80071068E0072360139F000F00DF00D0E083A
:1007D8007006FB3970068E0072080139F000F00DC2
:1007E800F00DF00D0E087006F73970068E00033014
:1007F800890BFC2B000020000E160032003200008E
:1008080020000E120830F0002330890B092CF00B61
:10081800092C000008002000A300A101A201230860
:1008280086008701403FF800413FF90078088400BE
:100838007908850012002A3A031D232C242C562CF3
:100848002308860087010130810741310318810A96
:100858007608860087010108840085010230810737
:10086800003FA100013FA2006A2C2008F800F9010E
:100878002208F1002108F0000A30F2000030F300ED
:10088800863149268431780870072000A10079084C
:10089800713DA2002308860087010130810741319C
:1008A8000318810A230886008701403FF800413F6A
:1008B800F90078088400790885000008D03EA00077
:1008C8000A302002031C692C6A2C392C2208F700F4
:1008D8002108F6000800F601F11F732C742C7B2CFC
:1008E800F009F109F00A0319F10AF601F60AF31FF3
:1008F8007E2C7F2C882CF209F309F20A0319F30ADB
:100908000130F4007408F606F701F8017008710464
:1009180003198F2C902CBF2CF501F50A9C2C013063
:10092800F035F10D890B942C0130F4007408F507AB
:10093800F11F9F2CA02C932C0130F735F80D890B53
:10094800A12C71087302031DAB2C70087202031CE2
:10095800AE2CAF2CB42C7008F2027108F33B77145C
:100968000130F136F00C890BB52C0130F502031D6E
:10097800BE2CBF2CA02C76080319C32CC42CC92C60
:10098800F709F809F70A0319F80A7808F10077084F
:10099800F0000800F601F31FD22CD32CDA2CF20950
:1009A800F309F20A0319F30AF601F60AF11FDD2C1E
:1009B800DE2CE32CF009F109F00A0319F10A70089A
:1009C80071040319E82CE92C122DF501F50AF52C10
:1009D8000130F035F10D890BED2C0130F40074086D
:1009E800F507F11FF82CF92CEC2C71087302031D84
:1009F800FF2C70087202031C022D032D072D7008AE
:100A0800F2027108F33B0130F136F00C890B082D26
:100A18000130F502031D112D122DF92C760803194A
:100A2800162D172D1C2DF209F309F20A0319F30AE2
:100A38007308F1007208F000080072080319252DE8
:100A4800262D2B2D7208031D2A2D2B2D302D7008D5
:100A5800873129278531702D7208093E8600870164
:100A6800160001040319392D3A2D582D7208093E34
:100A780086008701403FF300413FF4007208023EC0
:100A880086008701403FF500413FF6007608803A2E
:100A9800F7007408803A7702031D542D7308750215
:100AA8000318572D582D702D72088600870172087B
:100AB800023E8400850100080107F30073088600E0
:100AC8008701700881007208023E860087010130A4
:100AD800810741310318810A08002000A9006F1C12
:100AE800762D772D7D2D2908F8007B08863125265F
:100AF8008531FD1B802D812D872D7D082000A800C4
:100B08007C08A7008A2D2000A701A801A501A6013D
:100B18009C2D2030F0000030F10020002908F20060
:100B280085312125853101302000A5070030A63DFB
:100B38002608803AA4002808803A2402031DA62D1E
:100B480027082502031CA92DAA2D8D2D20006F181A
:100B5800AE2DAF2DB52D2908F8007B088631252646
:100B680085310800F700C82D7308803EF800DE2D97
:100B78007308C03EF800DE2D7308943EF800DE2DA1
:100B88007308D43EF800DE2D7708F500F6017608E4
:100B9800003A0319D02DDE2D7508013A0319B82D36
:100BA800033A0319BC2D013A0319C02D073A03195A
:100BB800C42DDE2D780883317C238531EE2D740811
:100BC8008600870101088231E62285310130F5006F
:100BD8007508F4077408860087010108031DF52DC0
:100BE800F62DE32D080022008C018D018E0137308F
:100BF80021008C00F0308D00BF308E00CF302300F4
:100C08008E00F0308D0017308C0024008D018C018F
:100C18008E012100951725008C018D018E0137303A
:100C280026008C00F0308D00FF308E003F3027000A
:100C38008C00F0308D00FF308E000E303D00A60095
:100C480008002000A300A101A2013B2E2008F90002
:100C5800FA017908F0007A08F1007808F200853185
:100C68002125863101302000A1070030A23D21084E
:100C78002307F9007908860087010108A0002008E9
:100C8800031D472E482E2A2E0800F401F501701C7A
:100C98004E2E4F2E532E7208F4077308F53D01307F
:100CA800F235F30D890B542E0130F136F00C890B17
:100CB800592E70087104031D622E632E4B2E750881
:100CC800F1007408F00008002000D3004D30D20075
:100CD8005308D400D601D701DD01DE014C08C50058
:100CE8004B08C4005230C600543086318526863100
:100CF800200056085307D10051088600870181015A
:100D080008002000C8004508CA004408C900942EFD
:100D18004930B7004608B80048088131B221863109
:100D28002000490884004A0885001200031D9D2EF2
:100D38009E2E8C2EC401C50108007808803AF9005F
:100D480080307902031DAA2E013077020318AD2ED8
:100D5800AE2EBA2E7709F9007809FA00F90A0319B4
:100D6800FA0A7908F7007A08F800BA2E080071081C
:100D7800F3007008F200F336F20CF336F20C720846
:100D88002C00980070080339F2000530F235FF3E58
:100D9800031DCA2E7235970008008531F725863164
:100DA80087311827863187310D2786318731022709
:100DB8008631080048343A342534323464342034D7
:100DC8004C343A3425343234643400344334753482
:100DD80065346E34743461343A342034253435340F
:100DE8006434003402303C00910027302100950023
:100DF800E130200095000B118B16080020009E01A1
:100E08009D019F011F309B009A01901080309C002B
:100E1800080080302C0099000F309800C0309700EF
:100E2800CF3025009E050800683021009900980100
:100E3800220096010800640080010131890B202FEF
:0C0E4800003484302000980008000800EE
:020000040001F9
:06000E009C3FFF3E9F3FF6
:00000001FF
