:020000040000FA
:0400000080311F2804
:100008007E1480310B1D09280A281D2803102200A0
:100018000D1E031403181128142822000D16162883
:1000280022000D127D3020009500960197010B11DA
:1000380010107E10090080312128613084000030C2
:10004800850009308731DD278031A03084000030F9
:10005800850048308731DD2780317E1020008031CF
:10006800352821001908873968389900FC30990526
:10007800980123008C018D018E01103021008C0025
:100088008D018E0120008C018D018E018B170B11C3
:100098008B168731C6278031873193278031873186
:1000A800D62780310C303D00A6008C302500930007
:1000B800FA3091008231C222803101308331F1233C
:1000C80080310C308331F123803182302000DF0011
:1000D800DD30890B6D28DF0B6D280032A630F0006B
:1000E8000030F10020001708F3001608F2008631EE
:1000F800B126803171082000E6007008E500AF30B5
:10010800CD008730CE001708D0001608CF00D430B5
:1001180087313027803183302000CD008730CE00F2
:100128006608D0006508CF00C0308731302780319D
:10013800F301F30AD430F4000030F50001308631C1
:100148002B268031F301F30AC030F4000030F500AB
:10015800023086312B26803103302000E0008A30BF
:10016800DF005530890BB628DF0BB628E00BB62820
:100178000032F301F30AA330F4008730F5000230AF
:1001880086312B26803104302000E0000C30DF005F
:100198003330890BCD28DF0BCD28E00BCD2800327A
:1001A8000F308331F123803182302000DF00DD30D1
:1001B800890BDC28DF0BDC2800320E308331F12379
:1001C800803182302000DF00DD30890BE928DF0B29
:1001D800E92800320C308331F1238031823020004D
:1001E800DF00DD30890BF628DF0BF62800320130FE
:1001F8008331F123803102302000E0000430DF0039
:10020800BA30890B0529DF0B0529E00B0529000009
:100218000430F300BB30F4008730F500013086313C
:100228006E2680310430F300CF30F4008730F500BB
:10023800023086316E268031722880311F282000D6
:10024800AF00AB1B28292A2901302B290030B60022
:1002580036080319302931293629AA09AB09AA0A0F
:100268000319AB0AE41B39293A293E29FD30AC00B1
:100278002C08E905E41F4129422947290130B0002B
:100288000030B1004B296408B1006308B00062086F
:10029800B3006108B20036080319532954296829A4
:1002A800FF30B207FF30B33D3608031D5C295D29D6
:1002B80062292B30AD000030AE0066292D30AD002C
:1002C8000030AE002D08B6001F30B4000030B50075
:1002D8002100BF01A629FF302000B407FF30B53D3B
:1002E8003408A03E860087010A30F0000030F10093
:1002F8002B08F3002A08F200853143258131710863
:10030800F8007008F7008731692781317708303E97
:100318008100FF302000B007FF30B13DFF30B20749
:10032800FF30B33D0A30F0000030F1002B08F30035
:100338002A08F2008431E424813171082000AB00DE
:100348007008AA0020003508803AAC0080302C02E2
:10035800031DB02901303402031CB329B429DB2959
:1003680020002A082B04031DBA29BB296F2931084C
:10037800803AAC0080302C02031DC42901303002C1
:100388000318C729C8296F2920003308803AAC0010
:1003980080302C02031DD22901303202031CD529DA
:1003A800D629DB292000E918DA29DB296F29200062
:1003B80036080319E029E129EB29FF30B407FF309B
:1003C800B53D3408A03E8600870136088100340810
:1003D800A03EFB003308FD003208FC002F088531E1
:1003E800E625813108002000C30037088600870110
:1003F800403FB900413FBA00390884003A088500F7
:100408001200253A031D092A0A2AA92A3708860054
:1004180087010130810741310318810AE101E201B6
:100428000310003003180130E900FF30E300FF300B
:10043800E400C101C201472AE91437088600870190
:100448000130810741310318810A472A0130C10070
:100458000030C200472A370886008701403FB900AC
:10046800413FBA00390884003A0885000008BB00FB
:10047800BC013C08003A0319422A2A2A3B08303AB0
:100488000319202A2A2A4108420403194C2A4D2A12
:100498002F2A3808F60037088431842481317708F8
:1004A8002000E2007608E100E21F5B2A5C2A622A4B
:1004B8006914E109E209E10A0319E20A370886002A
:1004C8008701403FC400413FC500440884004508F7
:1004D80085001200643A0319722A732A7D2A440897
:1004E8008400450885001200693A031D7C2A7D2A8C
:1004F8009F2A380886008701010884008501023098
:100508008107003FBD00013FBE004408013EB9001D
:100518000030453DBA003708860087013908C03FDA
:100528003A08C13F3E08AB003D08AA0043088131A4
:1005380023218131C12A2000370886008701013034
:10054800810741310318810AC12A370886008701CB
:10055800403FB900413FBA00390884003A08850095
:100568000008BB00BC013B08F0003C08F100430850
:10057800F2008531962581319F2A080021000E104E
:100588008E100E118E110E128E1220000E108E106B
:100598000E118E110E128E120830F3002330890BC3
:1005A800D32AF30BD32A00000830F3002330890B39
:1005B800DB2AF30BDB2A00000830F3002330890B19
:1005C800E32AF30BE32A00000830F3002330890BF9
:1005D800EB2AF30BEB2A00000830F3002330890BD9
:1005E800F32AF30BF32A00000830F3002330890BB9
:1005F800FB2AF30BFB2A0000F401F40A20000E107A
:100608008E100E158E150E128E120E108E100E15DF
:100618008E150E168E1200320032000020000E10C9
:100628008E100E158E150E128E120830F300233020
:10063800890B1C2BF30B1C2B00000130F3007308F3
:10064800F40704307402031C2A2B2B2B022B2000E6
:100658000E108E100E158E110E128E120E108E1098
:100668000E158E110E168E12003200320000200078
:100678000E108E100E158E110E128E120830F30009
:100688002330890B452BF30B452B00002830833191
:10069800F123823110308331F123823101308331EB
:1006A800F12382310F308331F12382310800F200C7
:1006B80020000E128E167208F0000730F036890BF3
:1006C800622B01307005F1000E087106FE397106C3
:1006D8008E007208F0000630F036890B702B700817
:1006E8000139F100F10D0E087106FD3971068E0011
:1006F8007208F0000530F036890B7F2B700801393D
:10070800F100F10DF10D0E087106FB3971068E002E
:100718007208F0000430F036890B8F2B700801390D
:10072800F100F10DF10DF10D0E087106F7397106A2
:100738008E000330890B9E2B000020000E1600321D
:100748000032000020000E127208F0000330F0366C
:10075800890BAB2B01307005F1000E087106FE39CC
:1007680071068E007208F0000230F036890BB92B42
:1007780070080139F100F10D0E087106FD39710696
:100788008E0072360139F000F00DF00D0E0870067B
:10079800FB3970068E0072080139F000F00DF00D7B
:1007A800F00D0E087006F73970068E000330890BBD
:1007B800DB2B000020000E16003200320000200063
:1007C8000E120032003200000830F0002330890B8E
:1007D800EB2BF00BEB2B00000800F20020000E12B0
:1007E8008E127208F0000730F036890BF82B0130B2
:1007F8007005F1000E087106FE3971068E00720848
:10080800F0000630F036890B062C70080139F1002B
:10081800F10D0E087106FD3971068E007208F000A0
:100828000530F036890B152C70080139F100F10DEF
:10083800F10D0E087106FB3971068E007208F00082
:100848000430F036890B252C70080139F100F10DC0
:10085800F10DF10D0E087106F73971068E0003309F
:10086800890B342C000020000E16003200320000E4
:1008780020000E127208F0000330F036890B412C6C
:1008880001307005F1000E087106FE3971068E0000
:100898007208F0000230F036890B4F2C70080139CD
:1008A800F100F10D0E087106FD3971068E007236E1
:1008B8000139F000F00DF00D0E087006FB397006D6
:1008C8008E0072080139F000F00DF00DF00D0E08E1
:1008D8007006F73970068E000330890B712C000002
:1008E80020000E1600320032000020000E120830E0
:1008F800F0002330890B7E2CF00B7E2C00000800C2
:100908002000A300A101A201230886008701403F1F
:10091800F800413FF9007808840079088500120042
:100928002A3A031D982C992CCB2C23088600870182
:100938000130810741310318810A76088600870152
:1009480001088400850102308107003FA100013FB2
:10095800A200DF2C2008F800F9012208F100210884
:10096800F0000A30F2000030F3008731112784319B
:10097800780870072000A1007908713DA2002308BB
:10098800860087010130810741310318810A230855
:1009980086008701403FF800413FF900780884004D
:1009A800790885000008D03EA0000A302002031C08
:1009B800DE2CDF2CAE2C2208F7002108F6000800F8
:1009C800F601F11FE82CE92CF02CF009F109F00AE6
:1009D8000319F10AF601F60AF31FF32CF42CFD2C87
:1009E800F209F309F20A0319F30A0130F400740852
:1009F800F606F701F801700871040319042D052D96
:100A0800342DF501F50A112D0130F035F10D890B62
:100A1800092D0130F4007408F507F11F142D152D68
:100A2800082D0130F735F80D890B162D7108730262
:100A3800031D202D70087202031C232D242D292D3F
:100A48007008F2027108F33B77140130F136F00CAC
:100A5800890B2A2D0130F502031D332D342D152D58
:100A680076080319382D392D3E2DF709F809F70AAC
:100A78000319F80A7808F1007708F0000800F60171
:100A8800F31F472D482D4F2DF209F309F20A0319D8
:100A9800F30AF601F60AF11F522D532D582DF009CD
:100AA800F109F00A0319F10A7008710403195D2DA0
:100AB8005E2D872DF501F50A6A2D0130F035F10D0F
:100AC800890B622D0130F4007408F507F11F6D2DB4
:100AD8006E2D612D71087302031D742D700872024A
:100AE800031C772D782D7C2D7008F2027108F33BDA
:100AF8000130F136F00C890B7D2D0130F502031D14
:100B0800862D872D6E2D760803198B2D8C2D912D12
:100B1800F209F309F20A0319F30A7308F1007208DB
:100B2800F0000800720803199A2D9B2DA02D720859
:100B3800031D9F2DA02DA52D70088731E327853132
:100B4800E52D7208093E8600870116000104031985
:100B5800AE2DAF2DCD2D7208093E86008701403F8E
:100B6800F300413FF4007208023E86008701403FCF
:100B7800F500413FF6007608803AF7007408803A9D
:100B88007702031DC92D730875020318CC2DCD2DCE
:100B9800E52D7208860087017208023E84008501EF
:100BA80000080107F30073088600870170088100B8
:100BB8007208023E8600870101308107413103181F
:100BC800810A08002000A900691CEB2DEC2DF22DEC
:100BD8002908F8007B088631ED268531FD1BF52DA7
:100BE800F62DFC2D7D082000A8007C08A700FF2D0D
:100BF8002000A701A801A501A601112E2030F000B0
:100C08000030F10020002908F20085319625853151
:100C180001302000A5070030A63D2608803AA40030
:100C28002808803A2402031D1B2E27082502031CCE
:100C38001E2E1F2E022E20006918232E242E2A2E47
:100C48002908F8007B088631ED2685310800F80070
:100C58003D2E7308803EF900532E7308C03EF900FC
:100C6800532E7308943EF900532E7308D43EF900AE
:100C7800532E7808F600F7017708003A0319452E35
:100C8800532E7608013A03192D2E033A0319312EF3
:100C9800013A0319352E073A0319392E532E7908CC
:100CA8008331F1238631642E740884007508850029
:100CB800000883315B2386310130F4070030F53DAD
:100CC80074088400750885001200031D6C2E6D2EB3
:100CD800582E0800F800802E7308803EF900962EE2
:100CE8007308C03EF900962E7308943EF900962EBC
:100CF8007308D43EF900962E7808F600F7017708B5
:100D0800003A0319882E962E7608013A0319702E98
:100D1800033A0319742E013A0319782E073A031976
:100D28007C2E962E79088331F1238631A72E7408FC
:100D3800840075088500000883315B238631013003
:100D4800F4070030F53D740884007508850012002A
:100D5800031DAF2EB02E9B2E0800F501F60170087A
:100D680071040319B82EB92EE82EF701F70AC52E1B
:100D78000130F035F10D890BBD2E0130F4007408F7
:100D8800F707F11FC82EC92EBC2E0130F535F60D18
:100D9800890BCA2E71087302031DD42E70087202C3
:100DA800031CD72ED82EDD2E7008F2027108F33BF3
:100DB80075140130F136F00C890BDE2E0130F70284
:100DC800031DE72EE82EC92E7608F1007508F000FD
:100DD80008002000A300A101A201032F2008F900A8
:100DE800FA017908F0007A08F1007808F2008531F4
:100DF8009625863101302000A1070030A23D210848
:100E08002307F9007908860087010108A000200857
:100E1800031D0F2F102FF22E0800F401F501701C8E
:100E2800162F172F1B2F7208F4077308F53D013092
:100E3800F235F30D890B1C2F0130F136F00C890BBC
:100E4800212F70087104031D2A2F2B2F132F7508CB
:100E5800F1007408F00008002000D3004F30D200E1
:100E68005308D400D601D701DD01DE014E08C700C2
:100E78004D08C6005230C800543087314D2787319D
:100E8800200056085307D1005108860087018101C8
:100E980008002000CA004708CC004608CB005C2F99
:100EA8004B30B7004808B8004A088131F72187312C
:100EB80020004B0884004C0885001200031D652F94
:100EC800662F542FC601C70108007808803AF90038
:100ED80080307902031D722F013077020318752FB5
:100EE800762F822F7709F9007809FA00F90A031991
:100EF800FA0A7908F7007A08F800822F08004634C1
:100F0800723465347134753465346E3463347934CD
:100F18003A342034253430343334643400342000F7
:100F280099101914191399121916991795309800D0
:100F380005303C00920020009601970108005434C7
:100F480065347334743469346E34673420344C3403
:100F5800433444340034543469346D346534723461
:100F6800313420342534303433346434003452344A
:100F780065344C346F3461346434463472346534C7
:100F8800713400340630210095007D302000950032
:100F98000B118B1608005234653473347434613481
:100FA8007234003420009A017C309B00E0309C00B1
:100FB8000800640080010131890BDE2F003408002D
:020000040001F9
:06000E009C3FFF3E9F3FF6
:00000001FF
