:020000040000FA
:0400000080311C2807
:100008007E1480310B1D09280A281A2803102200A3
:100018000D1E031403181128142822000D16162883
:1000280022000D127D30200095000B117E10090072
:1000380080311E2861308400003085000730873108
:100048009C278031A03084000030850048308731FB
:100058009C2780317E102000803132282100190829
:10006800873968389900FC309905980123008C017C
:100078008D018E0121008C018D018E0120008C01E3
:100088008D018E018B170B118B16873186278031D6
:100098008231DF228031013084310E2480310C30EE
:1000A80084310E24803182302000DF00DD30890B5E
:1000B8005B28DF0B5B28003270302000CD008730D2
:1000C800CE000530CF000030D000D4308731112762
:1000D80080317C302000CD008730CE00DE30CF006C
:1000E8000030D000C030873111278031F301F30A86
:1000F800D430F4000030F5000130863148268031D4
:10010800F301F30AC030F4000030F5000230863104
:100118004826803182302000DF00DD30890B9228AC
:10012800DF0B922800320A302000E5000030E6009C
:1001380070302000CD008730CE006608D0006508FA
:10014800CF00D430873111278031F301F30AD4303E
:10015800F4000030F50001308631482680318230C5
:100168002000DF00DD30890BB728DF0BB72800320D
:10017800FF302000E507FF30E63D6608803ADF00E3
:1001880080305F02031DCA28013065020318CD289C
:10019800CE289C28F301F30A6430F4008730F50078
:1001A800023086314826803104302000E0000C30CF
:1001B800DF003330890BDE28DF0BDE28E00BDE287A
:1001C80000320F3084310E24803106302000E000E8
:1001D8001330DF00AD30890BEF28DF0BEF28E00B81
:1001E800EF2800320E3084310E2480310630200092
:1001F800E0001330DF00AD30890B0029DF0B002948
:10020800E00B002900320C3084310E248031063096
:100218002000E0001330DF00AD30890B1129DF0B1F
:100228001129E00B11290032013084310E2480316C
:1002380006302000E0001330DF00AD30890B2229A2
:10024800DF0B2229E00B222900320430F3008F3023
:10025800F4008730F500013086318B268031043078
:10026800F3009630F4008730F500023086318B2693
:100278008031602880311C282000AF00AB1B452945
:100288004729013048290030B600360803194D299E
:100298004E295329AA09AB09AA0A0319AB0AE41B78
:1002A800562957295B29FD30AC002C08E705E41FC7
:1002B8005E295F2964290130B0000030B100682947
:1002C8006408B1006308B0006208B3006108B200B6
:1002D80036080319702971298529FF30B207FF30C4
:1002E800B33D3608031D79297A297F292B30AD00C3
:1002F8000030AE0083292D30AD000030AE002D084F
:10030800B6001F30B4000030B5002100BF01C3297A
:10031800FF302000B407FF30B53D3408A03E86000A
:1003280087010A30F0000030F1002B08F3002A089A
:10033800F2008531602581317108F8007008F700F6
:1003480087314A2781317708303E8100FF3020000D
:10035800B007FF30B13DFF30B207FF30B33D0A3080
:10036800F0000030F1002B08F3002A08F200853174
:100378000125813171082000AB007008AA00200017
:100388003508803AAC0080302C02031DCD2901309D
:100398003402031CD029D129F82920002A082B046B
:1003A800031DD729D8298C293108803AAC00803020
:1003B8002C02031DE129013030020318E429E52944
:1003C8008C2920003308803AAC0080302C02031DB1
:1003D800EF2901303202031CF229F329F829200001
:1003E800E718F729F8298C29200036080319FD2970
:1003F800FE29082AFF30B407FF30B53D3408A03E77
:1004080086008701360881003408A03EFB003308C7
:10041800FD003208FC002F088631032681310800D0
:100428002000C300370886008701403FB900413FDC
:10043800BA00390884003A0885001200253A031DDD
:10044800262A272AC62A370886008701013081070D
:1004580041310318810AE101E20103100030031859
:100468000130E700FF30E300FF30E400C101C201C2
:10047800642AE71437088600870101308107413173
:100488000318810A642A0130C1000030C200642ABE
:10049800370886008701403FB900413FBA00390854
:1004A80084003A0885000008BB00BC013C08003AFB
:1004B80003195F2A472A3B08303A03193D2A472A7D
:1004C800410842040319692A6A2A4C2A3808F600A6
:1004D80037088431A124823177082000E2007608A9
:1004E800E100E21F782A792A7F2A6714E109E209E4
:1004F800E10A0319E20A370886008701403FC40071
:10050800413FC50044088400450885001200643A4C
:1005180003198F2A902A9A2A4408840045088500DE
:100528001200693A031D992A9A2ABC2A38088600BB
:10053800870101088400850102308107003FBD0062
:10054800013FBE004408013EB9000030453DBA00F5
:100558003708860087013908C03F3A08C13F3E087E
:10056800AB003D08AA004308813140218231DE2AD0
:1005780020003708860087010130810741310318C0
:10058800810ADE2A370886008701403FB900413FCB
:10059800BA00390884003A0885000008BB00BC018D
:1005A8003B08F0003C08F1004308F2008531B32510
:1005B8008231BC2A080021000E108E100E118E11F7
:1005C8000E128E1220000E108E100E118E110E12A9
:1005D8008E120830F3002330890BF02AF30BF02A2F
:1005E80000000830F3002330890BF82AF30BF82AAF
:1005F80000000830F3002330890B002BF30B002B8D
:1006080000000830F3002330890B082BF30B082B6C
:1006180000000830F3002330890B102BF30B102B4C
:1006280000000830F3002330890B182BF30B182B2C
:100638000000F401F40A20000E108E100E158E151D
:100648000E128E120E108E100E158E150E168E129C
:1006580000320032000020000E108E100E158E158C
:100668000E128E120830F3002330890B392BF30B4E
:10067800392B00000130F3007308F40704307402CA
:10068800031C472B482B1F2B20000E108E100E1515
:100698008E110E128E120E108E100E158E110E1651
:1006A8008E1200320032000020000E108E100E153F
:1006B8008E110E128E120830F3002330890B622B34
:1006C800F30B622B0000283084310E248231103065
:1006D80084310E248231013084310E2482310F306E
:1006E80084310E2482310800F20020000E128E168A
:1006F8007208F0000730F036890B7F2B0130700547
:10070800F1000E087106FE3971068E007208F000BD
:100718000630F036890B8D2B70080139F100F10D88
:100728000E087106FD3971068E007208F00005305A
:10073800F036890B9C2B70080139F100F10DF10D91
:100748000E087106FB3971068E007208F00004303D
:10075800F036890BAC2B70080139F100F10DF10D61
:10076800F10D0E087106F73971068E000330890BFA
:10077800BB2B000020000E160032003200002000C3
:100788000E127208F0000330F036890BC82B0130C6
:100798007005F1000E087106FE3971068E007208A8
:1007A800F0000230F036890BD62B70080139F100C1
:1007B800F10D0E087106FD3971068E007236013989
:1007C800F000F00DF00D0E087006FB3970068E0073
:1007D80072080139F000F00DF00DF00D0E087006EA
:1007E800F73970068E000330890BF82B00002000C3
:1007F8000E1600320032000020000E1200320032C5
:1008080000000830F0002330890B082CF00B082C6E
:1008180000000800F20020000E128E127208F0008C
:100828000730F036890B152C01307005F1000E08E1
:100838007106FE3971068E007208F0000630F03637
:10084800890B232C70080139F100F10D0E0871068F
:10085800FD3971068E007208F0000530F036890BFC
:10086800322C70080139F100F10DF10D0E087106F6
:10087800FB3971068E007208F0000430F036890BDF
:10088800422C70080139F100F10DF10DF10D0E083F
:100898007106F73971068E000330890B512C000060
:1008A80020000E1600320032000020000E127208DE
:1008B800F0000330F036890B5E2C01307005F10032
:1008C8000E087106FE3971068E007208F0000230BB
:1008D800F036890B6C2C70080139F100F10D0E0807
:1008E8007106FD3971068E0072360139F000F00D7F
:1008F800F00D0E087006FB3970068E00720801397B
:10090800F000F00DF00DF00D0E087006F7397006C6
:100918008E000330890B8E2C000020000E1600324A
:100928000032000020000E120830F0002330890B3E
:100938009B2CF00B9B2C000008002000A300A101B9
:10094800A201230886008701403FF800413FF900D3
:10095800780884007908850012002A3A031DB52C0E
:10096800B62CE82C23088600870101308107413125
:100978000318810A7608860087010108840085012A
:1009880002308107003FA100013FA200FC2C200893
:10099800F800F9012208F1002108F0000A30F200FD
:1009A8000030F3008631F226843178087007200081
:1009B800A1007908713DA200230886008701013053
:1009C800810741310318810A230886008701403FC7
:1009D800F800413FF900780884007908850000088C
:1009E800D03EA0000A302002031CFB2CFC2CCB2C90
:1009F8002208F7002108F6000800F601F11F052D6E
:100A0800062D0D2DF009F109F00A0319F10AF60176
:100A1800F60AF31F102D112D1A2DF209F309F20A07
:100A28000319F30A0130F4007408F606F701F80117
:100A3800700871040319212D222D512DF501F50A95
:100A48002E2D0130F035F10D890B262D0130F400E3
:100A58007408F507F11F312D322D252D0130F7359A
:100A6800F80D890B332D71087302031D3D2D700895
:100A78007202031C402D412D462D7008F2027108A8
:100A8800F33B77140130F136F00C890B472D013018
:100A9800F502031D502D512D322D76080319552DC1
:100AA800562D5B2DF709F809F70A0319F80A780893
:100AB800F1007708F0000800F601F31F642D652D9A
:100AC8006C2DF209F309F20A0319F30AF601F60A82
:100AD800F11F6F2D702D752DF009F109F00A03191A
:100AE800F10A7008710403197A2D7B2DA42DF501E4
:100AF800F50A872D0130F035F10D890B7F2D013076
:100B0800F4007408F507F11F8A2D8B2D7E2D7108CE
:100B18007302031D912D70087202031C942D952DEC
:100B2800992D7008F2027108F33B0130F136F00C90
:100B3800890B9A2D0130F502031DA32DA42D8B2DB1
:100B480076080319A82DA92DAE2DF209F309F20A8A
:100B58000319F30A7308F1007208F000080072081C
:100B68000319B72DB82DBD2D7208031DBC2DBD2D41
:100B7800C22D70088731A2278531022E7208093EDE
:100B880086008701160001040319CB2DCC2DEA2D10
:100B98007208093E86008701403FF300413FF40098
:100BA8007208023E86008701403FF500413FF6008B
:100BB8007608803AF7007408803A7702031DE62D1C
:100BC800730875020318E92DEA2D022E72088600B3
:100BD80087017208023E8400850100080107F300BE
:100BE800730886008701700881007208023E86003B
:100BF80087010130810741310318810A080020006C
:100C0800A900671C082E092E0F2E2908F8007B085A
:100C18008631CE268631FD1B122E132E192E7D0805
:100C28002000A8007C08A7001C2E2000A701A8010E
:100C3800A501A6012E2E2030F0000030F100200082
:100C48002908F2008531B325863101302000A50737
:100C58000030A63D2608803AA4002808803A2402DD
:100C6800031D382E27082502031C3B2E3C2E1F2E61
:100C780020006718402E412E472E2908F8007B08CF
:100C88008631CE2686310800F8005A2E7308803E39
:100C9800F900702E7308C03EF900702E7308943E58
:100CA800F900702E7308D43EF900702E7808F6000B
:100CB800F7017708003A0319622E702E7608013A78
:100CC80003194A2E033A03194E2E013A0319522EDC
:100CD800073A0319562E702E790884310E2486316E
:100CE800812E7408840075088500000883317823F4
:100CF80086310130F4070030F53D7408840075082A
:100D080085001200031D892E8A2E752E0800F80012
:100D18009D2E7308803EF900B32E7308C03EF9007B
:100D2800B32E7308943EF900B32E7308D43EF9002D
:100D3800B32E7808F600F7017708003A0319A52EB4
:100D4800B32E7608013A03198D2E033A0319912E12
:100D5800013A0319952E073A0319992EB32E7908EB
:100D680084310E248631C42E7408840075088500E9
:100D780000088331782386310130F4070030F53DCF
:100D880074088400750885001200031DCC2ECD2E32
:100D9800B82E08002000A300A101A201E42E20081B
:100DA800F900FA017908F0007A08F1007808F200F1
:100DB8008531B325863101302000A1070030A23DDE
:100DC80021082307F9007908860087010108A00097
:100DD8002008031DF02EF12ED32E0800F401F50192
:100DE800701CF72EF82EFC2E7208F4077308F53DD8
:100DF8000130F235F30D890BFD2E0130F136F00C80
:100E0800890B022F70087104031D0B2F0C2FF42E71
:100E18007508F1007408F00008002000D3004F3076
:100E2800D2005308D400D601D701DD01DE014E08F7
:100E3800C7004D08C6005230C800543087312E27ED
:100E48008731200056085307D100510886008701D2
:100E5800810108002000CA004708CC004608CB00E2
:100E68003D2F4B30B7004808B8004A088231142299
:100E7800873120004B0884004C0885001200031DB0
:100E8800462F472F352FC601C70108007808803A3A
:100E9800F90080307902031D532F013077020318BF
:100EA800562F572F632F7709F9007809FA00F90AA6
:100EB8000319FA0A7908F7007A08F800632F08007E
:100EC800543465347334743469346E34673420347C
:100ED8004C344334443400344334753465346E340C
:100EE8007434613420342534303433346434003479
:100EF8004434453443343A3420342534303433349C
:100F0800643400340630210095007D3020009500BF
:100F18000B118B1608005434683461346E346B340A
:100F2800733400345434683461346E346B340034B0
:0E0F3800640080010131890B9D2F00340800F8
:020000040001F9
:06000E009C3FFF3E9F3FF6
:00000001FF
